A200332271002500000679NET SERVIÇOS        033SANTANDER           2016091300167204DEBITO AUTOMATICO                                                    
B0000000000001            0001010458466     20160912                                                                                                 2
B7940092856241            0001010007156     20160912                                                                                                 1
F1623774336026            0001010126804     201609120000000000110000016200000120904864                                                               0
F1623774385230            0001010032844     201609120000000000039900016200000120905249                                                               0
Z00000600000000000014990                                                                                                                              
